MPLINK 4.38, Linker
Linker Map File - Created Thu Jul 21 16:36:07 2011

                                 Section Info
                  Section       Type    Address   Location Size(Bytes)
                ---------  ---------  ---------  ---------  ---------
                   .org_0       code   0x000000    program   0x000000
                   .org_1       code   0x000000    program   0x000004
                   .org_2       code   0x000004    program   0x000072
.config_8007_12F1822_BLINK.O       code   0x008007    program   0x000002
.config_8008_12F1822_BLINK.O       code   0x008008    program   0x000002



                              Program Memory Usage 
                               Start         End      
                           ---------   ---------      
                            0x000000    0x000001      
                            0x000004    0x00003c      
                            0x008007    0x008008      
            61 out of 2311 program addresses used, program memory utilization is 2%



                              Symbols - Sorted by Name
                     Name    Address   Location    Storage File                     
                ---------  ---------  ---------  --------- ---------                
                     init   0x00001b    program     static D:\Elektornica\RGB_controller\12f1822_blink.asm
                 int_test   0x00000d    program     static D:\Elektornica\RGB_controller\12f1822_blink.asm
                     main   0x00003b    program     static D:\Elektornica\RGB_controller\12f1822_blink.asm



                              Symbols - Sorted by Address
                     Name    Address   Location    Storage File                     
                ---------  ---------  ---------  --------- ---------                
                 int_test   0x00000d    program     static D:\Elektornica\RGB_controller\12f1822_blink.asm
                     init   0x00001b    program     static D:\Elektornica\RGB_controller\12f1822_blink.asm
                     main   0x00003b    program     static D:\Elektornica\RGB_controller\12f1822_blink.asm


